:100000000C9434000C9451000C9451000C94510049
:100010000C9451000C9451000C9451000C9451001C
:100020000C9451000C9451000C9451000C9451000C
:100030000C9451000C9451000C9451000C945100FC
:100040000C9451000C9451000C9451000C945100EC
:100050000C9451000C9451000C9451000C945100DC
:100060000C9451000C94510011241FBECFEFD8E026
:10007000DEBFCDBF11E0A0E0B1E0EEE1F7E002C0ED
:1000800005900D92AC3BB107D9F721E0ACEBB1E0A4
:1000900001C01D92A03CB207E1F70E9471010C94CF
:1000A0008D030C940000CF93DF93CDB7DEB785ECC2
:1000B00090E0FC01108284EC90E027E6FC012083B4
:1000C00080EC90E0FC01208180EC90E02D7FFC0131
:1000D000208382EC90E026E0FC01208381EC90E01C
:1000E00028E1FC0120830000DF91CF910895CF9398
:1000F000DF9300D00F92CDB7DEB789837B836A830D
:1001000089818A3049F48A819B81BC018DE00E94FB
:10011000770080E090E011C080EC90E0FC018081ED
:10012000882F90E0807299270097B1F386EC90E0D9
:100130002981FC01208380E090E00F900F900F90C8
:10014000DF91CF910895CF93DF9300D0CDB7DEB785
:100150009A83898380EC90E0FC0180818115D4F73B
:1001600086EC90E0FC0180810F900F90DF91CF91A1
:100170000895CF93DF9300D000D0CDB7DEB79C8336
:100180008B838B819C81009719F48FEF9FEF11C0B7
:100190008B819C8166E071E00E94ED029A838983E5
:1001A00089819A81009719F08FEF9FEF02C080E05C
:1001B00090E00F900F900F900F90DF91CF910895E6
:1001C000CF93DF9300D000D000D0CDB7DEB79C83B3
:1001D0008B837E836D838D819E81813091051CF49C
:1001E0008FEF9FEF14C02D813E818B819C8144E174
:1001F00051E0B9010E94C2029A83898389819A8160
:10020000009719F48FEF9FEF02C080E090E00F900D
:100210000F900F900F900F900F90DF91CF91089556
:10022000CF93DF9300D0CDB7DEB79A8389838981DE
:100230009A8184309105D1F089819A818530910528
:10024000D0F489819A818130910531F089819A8138
:100250008230910531F00FC08EE391E00E94B90029
:100260000AC08FE791E00E94B90005C088EA91E0DA
:100270000E94B900000080E090E00F900F90DF91A5
:10028000CF910895CF93DF9300D0CDB7DEB781E053
:1002900090E09A83898389819A810F900F90DF91F2
:1002A000CF910895CF93DF9300D0CDB7DEB79A8377
:1002B000898380E090E00F900F90DF91CF910895B7
:1002C000CF93DF9300D00F92CDB7DEB79A838983A7
:1002D0006B8380E090E00F900F900F90DF91CF91B3
:1002E0000895CF93DF9300D000D0CDB7DEB70E9442
:1002F000530081E090E00E9410019A83898382E399
:1003000090E00E9495019C838B838B819C8162E3AA
:1003100070E00E94E0009A8389838B819C810E9417
:10032000B9009A8389830000F0CF0F931F93CF9376
:10033000DF939C01029710F422E030E0E091BC01D1
:10034000F091BD0180E090E0A0E0B0E0309791F442
:10035000009709F448C0821B930B84309105D0F5B7
:100360008A819B816115710581F1FB0193838283F1
:10037000FE0111C040815181028113814217530750
:10038000D8F04217530799F4109761F012960C9326
:10039000129713961C933296CF01DF91CF911F9144
:1003A0000F9108950093BC011093BD01F4CF009705
:1003B00051F04817590738F0AC01DB01CA01BD0103
:1003C000DF01F801C3CFEF01F9CF9093BD01809316
:1003D000BC01CECFFE01E80FF91F219331930297A4
:1003E00099838883D9CF8091BE019091BF01892BD9
:1003F00041F480910201909103019093BF01809399
:10040000BE018091000190910101009741F48DB7E8
:100410009EB74091040150910501841B950B4091BA
:10042000BE015091BF014817590708F0B5CF841B92
:10043000950B8217930708F4AFCFB9016E5F7F4F1A
:100440008617970708F4A8CF640F751F7093BF0134
:100450006093BE01FA01219331939ECFCF93DF9336
:100460009C010097D9F0FC01329713821282C0914F
:10047000BC01D091BD01209709F058C080819181C5
:10048000280F391F8091BE019091BF0182179307F9
:1004900009F06DC0F093BF01E093BE01DF91CF91F1
:1004A0000895AE17BF0708F048C0CD0112960D9011
:1004B000BC91A02D1097A9F7DC011396FC93EE9345
:1004C00012974D915D919D01240F351FE217F3079F
:1004D00081F4208131812E5F3F4F240F351FDC01D5
:1004E00011963C932E932281338113963C932E9345
:1004F0001297E0E0F0E08A819B810097E9F5DE0148
:100500008D919D918A0F9B1F2091BE013091BF015B
:100510002817390719F6309791F51092BD011092FE
:10052000BC01D093BF01C093BE01B8CFDE0180E013
:1005300090E0CE17DF0708F4B8CFB383A2834081E1
:100540005181240F351FA217B30771F44E5F5F4F1F
:100550002D913C911197240F351F318320831296E2
:100560002D913C9133832283009709F0A5CFF0931E
:10057000BD01E093BC0192CFFE01EC01BCCF138220
:100580001282CFCFA0E0B0E0E8ECF2E00C94600380
:100590008C01EB016A01FA01838180FD07C080E0D4
:1005A00090E0CDB7DEB7E8E00C947C031616170692
:1005B000B4F721977801209761F0C6010E941703D4
:1005C0008F3F980761F3F70181937F0121970A9785
:1005D00091F7F7011082C801E4CFEF92FF920F93D9
:1005E0001F93CF93DF938B01DB0113962C91E12CAA
:1005F000F12C21FD12C0EE24EA94FF24FA9411C0DC
:10060000D8011896ED91FC91B8010995892B21F03C
:10061000EE24EA94FF24FA94CE01EC018991811131
:10062000EFCFC701CDB7DEB7E6E00C947E03CF93E2
:10063000DF93EC018B8180FF1BC086FF0CC08F7B9A
:100640008B838E819F8101969F838E838A8190E028
:10065000DF91CF91089582FF19C0E881F9819081DF
:10066000292F092E000C330B911105C080628B835A
:100670008FEF9FEFEDCF3196F983E8838E819F81D5
:1006800001969F838E83C9019927E2CFEA85FB8576
:10069000CE0109959C0197FFF1CF8B812F3F3F4FF2
:1006A00019F490E1892BE3CF90E2FCCF2F923F9297
:1006B0004F925F926F927F928F929F92AF92BF9272
:1006C000CF92DF92EF92FF920F931F93CF93DF931E
:1006D000CDB7DEB7CA1BDB0B0FB6F894DEBF0FBE7B
:1006E000CDBF09942A88398848885F846E847D84C8
:1006F0008C849B84AA84B984C884DF80EE80FD80CA
:100700000C811B81AA81B981CE0FD11D0FB6F8943F
:0E071000DEBF0FBECDBFED010895F894FFCF00
:10071E000000C00120000000000200000000770071
:10072E000000000000000001000000000000A30017
:10073E000000000000020000000077000000000032
:10074E0000000001000000000000A3000000616135
:10075E00616161616161616161616161616161617B
:10076E00616161616161616161616161616161616B
:10077E00616161616161616161616161616161615B
:10078E0061616161616161616161616161610043CA
:10079E006F6E6E656374696F6E2068616C746564EC
:1007AE002C2077616974696E6720666F722072659E
:1007BE0073706F6E73652E00436F6E6E6563746932
:0C07CE006F6E20636C6F73656421000087
:00000001FF
