:100000000C9434000C9451000C9451000C94510049
:100010000C9451000C9451000C9451000C9451001C
:100020000C9451000C9451000C9451000C9451000C
:100030000C9451000C9451000C9451000C945100FC
:100040000C9451000C9451000C9451000C945100EC
:100050000C9451000C9451000C9451000C945100DC
:100060000C9451000C94510011241FBECFEFD8E026
:10007000DEBFCDBF11E0A0E0B1E0EAE8F6E002C0EB
:1000800005900D92A630B107D9F721E0A6E0B1E0C6
:1000900001C01D92AA30B207E1F70E94D0010C9472
:1000A00029030C94000087E084B9289829982A989D
:1000B000089529982898289A85E18A95F1F70000F3
:1000C0000895229828E090E080E008C0979599274D
:1000D00097958695892B2150211571F0299A3AE040
:1000E0003A95F1F700C029983AE03A95F1F700C047
:1000F0001A9BECCF91E0EACF0895229A98E00EC0C7
:1001000029982AE02A95F1F700C0299A2AE02A9531
:10011000F1F700C086959150911529F02A9880FF3B
:10012000EFCF2A9AEDCF0895CF93C82F0E945900A0
:100130008C2F0E947D000E94610028982998CF9101
:100140000895CF93DF93D82FC62F0E9459008D2F8B
:100150000E947D008C2F0E947D0028982998DF91B5
:10016000CF910895815891098D30910508F047C0CD
:10017000855D9C4FFC010C94F601262F2F70862F75
:1001800090E0959587959595879595958795959503
:1001900087958770682F660F660F680F660F822F2E
:1001A000860F0895262F2F70862F90E095958795BE
:1001B0009595879595958795959587958370682FE3
:1001C000660F660F680F660F822F860F0895862FC1
:1001D0008F706295617061956A70860F0895862FA1
:1001E00087700895962F9F70862F82958F70682F45
:1001F000660F660F680F660F892F860F0895862F8A
:100200000895CF93DF93C82FD92F80FF0FC0CE0161
:1002100080589109429760F4CE010E949400682FA3
:10022000CE010E94B200DF91CF9108958FEFFBCFF6
:100230008FEFF9CF805891098D30910508F057C0A4
:10024000885C9C4FFC010C94F6018DEC689F812D1D
:100250001124282F269526952695922F990F990FD0
:10026000920F990F262F291B880F8077822B0895D4
:100270008DEC689F812D1124282F26952695269593
:10028000922F990F990F920F990F262F291B880FE4
:100290008073822B08958DEC689F812D1124282F67
:1002A000269526952695922F990F990F920F990FC3
:1002B000262F291B880F8071822B0895862F83702B
:1002C00008958DEC689F812D1124282F2695269561
:1002D0002695922F990F990F920F990F262F291B70
:1002E0008695869586958295807F822B0895862FA8
:1002F0000895CF93DF93C82FD92F80FD10C0CE0172
:1003000080589109429768F4CE010E941A01682F23
:10031000CE010E94A10080E0DF91CF9108958FEF80
:10032000FBCF8FEFF9CFCF93DF93C82FD92F81E881
:1003300090E00E940101888383E890E00E9401011F
:10034000898385E890E00E9401018A8387E890E034
:100350000E9401018B8389E890E00E9401018C8357
:100360008BE890E00E9401018D838DE890E00E946F
:1003700001018E83DF91CF910895CF93DF9387E0C2
:1003800090E00E94FC01C82FD92F209729F00E94ED
:100390005300CE010E949301CE01DF91CF910895C9
:1003A0000E94530068E18CE890E00E94790163E0CC
:1003B00088E890E00E9479016DE186E890E00E9473
:1003C000790167E08AE890E00E94790169E084E8B9
:1003D00090E00E94790164E182E890E00E94790156
:1003E00060E080E890E00E947901FFCFEE0FFF1FF0
:1003F0000590F491E02D09940F931F93CF93DF9311
:100400009C01029710F422E030E0E0910601F091A7
:10041000070180E090E0A0E0B0E0309791F4009711
:1004200009F448C0821B930B84309105D0F58A8172
:100430009B816115710581F1FB0193838283FE012C
:1004400011C0408151810281138142175307D8F0B6
:100450004217530799F4109761F012960C93129774
:1004600013961C933296CF01DF91CF911F910F917C
:1004700008950093060110930701F4CF009751F0FF
:100480004817590738F0AC01DB01CA01BD01DF0193
:10049000F801C3CFEF01F9CF9093070180930601D4
:1004A000CECFFE01E80FF91F219331930297998374
:1004B0008883D9CF8091080190910901892B41F45B
:1004C00080910201909103019093090180930801AA
:1004D0008091000190910101009741F48DB79EB782
:1004E0004091040150910501841B950B4091080136
:1004F000509109014817590708F0B5CF841B950B97
:100500008217930708F4AFCFB9016E5F7F4F86174C
:10051000970708F4A8CF640F751F709309016093C3
:100520000801FA01219331939ECFCF93DF939C0171
:100530000097D9F0FC01329713821282C091060114
:10054000D0910701209709F058C080819181280F30
:10055000391F80910801909109018217930709F0D2
:100560006DC0F0930901E0930801DF91CF910895E8
:10057000AE17BF0708F048C0CD0112960D90BC9190
:10058000A02D1097A9F7DC011396FC93EE93129718
:100590004D915D919D01240F351FE217F30781F402
:1005A000208131812E5F3F4F240F351FDC011196D2
:1005B0003C932E932281338113963C932E93129772
:1005C000E0E0F0E08A819B810097E9F5DE018D9102
:1005D0009D918A0F9B1F20910801309109012817D6
:1005E000390719F6309791F510920701109206011C
:1005F000D0930901C0930801B8CFDE0180E090E0FC
:10060000CE17DF0708F4B8CFB383A28340815181AE
:10061000240F351FA217B30771F44E5F5F4F2D9162
:100620003C911197240F351F3183208312962D9111
:100630003C9133832283009709F0A5CFF093070103
:10064000E093060192CFFE01EC01BCCF138212822F
:10065000CFCFF894FFCFBD00FF00BD00FF00D20058
:10066000FF00D200FF00E700FF00EF00FF00F200F4
:1006700025017701250177013801770138017701DC
:0A0680004B0177015E017701610173
:06068A0000000A0120003F
:00000001FF
