:100000000C9434000C9451000C9451000C94510049
:100010000C9451000C9451000C9451000C9451001C
:100020000C9451000C9451000C9451000C9451000C
:100030000C9451000C9451000C9451000C945100FC
:100040000C9451000C9451000C9451000C945100EC
:100050000C9451000C9451000C9451000C945100DC
:100060000C9451000C94510011241FBECFEFD8E026
:10007000DEBFCDBF11E0A0E0B1E0EEE0F5E102C0EF
:1000800005900D92A235B107D9F721E0A2E5B1E0C4
:1000900001C01D92AC35B207E1F70E94C5040C9473
:1000A0006B0A0C940000E0ECF0E0908195FFFDCF2E
:1000B0008093C60080E090E00895E0ECF0E080815D
:1000C0008115ECF78091C60008951092C50087E66F
:1000D0008093C400E0ECF0E080818D7F808386E037
:1000E0008093C20088E18093C1000895CF93DF938D
:1000F00080E490E00E94B805C82FD92F209761F0C6
:1001000026E031E041E050E060E072E0CE010E9484
:10011000E5068034910521F4CE01DF91CF91089559
:10012000C0E0D0E0F9CFE82FF92F3097A9F024E113
:1001300031E041E050E060E072E0CF010E940F0743
:1001400021E030E0019729F088279927821B930B43
:10015000089520E030E0F8CF8FEF9FEF089587E01B
:1001600084B9289829982A98089529982898289A2F
:1001700085E18A95F1F700000895229828E090E043
:1001800080E008C09795992797958695892B2150EF
:10019000211571F0299A3AE03A95F1F700C02998B3
:1001A0003AE03A95F1F700C01A9BECCF91E0EACF24
:1001B0000895229A98E00EC029982AE02A95F1F72E
:1001C00000C0299A2AE02A95F1F700C0869591503F
:1001D000911529F02A9880FFEFCF2A9AEDCF089544
:1001E000CF93C82F0E94B5008C2F0E94D9000E9487
:1001F000BD0028982998CF910895CF93DF93D82FE9
:10020000C62F0E94B5008D2F0E94D9008C2F0E940E
:10021000D90028982998DF91CF91089581589109A4
:100220008D30910508F047C08359954FFC010C941F
:100230003305262F2F70862F90E0959587959595FD
:10024000879595958795959587958770682F660F03
:10025000660F680F660F822F860F0895262F2F7066
:10026000862F90E095958795959587959595879597
:10027000959587958370682F660F660F680F660FD8
:10028000822F860F0895862F8F7062956170619519
:100290006A70860F0895862F87700895962F9F7035
:1002A000862F82958F70682F660F660F680F660F16
:1002B000892F860F0895862F0895CF93DF93C82F37
:1002C000D92F80FF0FC0CE0180589109429760F46A
:1002D000CE010E94F000682FCE010E940E01DF9136
:1002E000CF9108958FEFFBCF8FEFF9CF8058910911
:1002F0008D30910508F057C08658954FFC010C943D
:1003000033058DEC689F812D1124282F2695269585
:100310002695922F990F990F920F990F262F291B2F
:10032000880F8077822B08958DEC689F812D112492
:10033000282F269526952695922F990F990F920F83
:10034000990F262F291B880F8073822B08958DEC1F
:10035000689F812D1124282F269526952695922F6A
:10036000990F990F920F990F262F291B880F8071D3
:10037000822B0895862F837008958DEC689F812DC0
:100380001124282F269526952695922F990F990F9F
:10039000920F990F262F291B869586958695829513
:1003A000807F822B0895862F0895CF93DF93C82FE7
:1003B000D92F80FD10C0CE0180589109429768F472
:1003C000CE010E947601682FCE010E94FD0080E0E0
:1003D000DF91CF9108958FEFFBCF8FEFF9CFCF93C0
:1003E000DF93C82FD92F81E890E00E945D018883B8
:1003F00083E890E00E945D01898385E890E00E9497
:100400005D018A8387E890E00E945D018B8389E823
:1004100090E00E945D018C838BE890E00E945D017A
:100420008D838DE890E00E945D018E83DF91CF91F6
:100430000895CF93DF9387E090E00E94B805C82F1E
:10044000D92F209729F00E94AF00CE010E94EF0122
:10045000CE01DF91CF9108958F929F92AF92BF927C
:10046000CF92DF92EF92FF921F93CF93DF93C82E2C
:10047000D92E562F142F81E090E0633010F080E0E9
:1004800090E0C81AD90A9601329522952F70232739
:100490003F702327AEE3BAE00E9439054C01A12C3E
:1004A000B12CE12CF12C9C01A0E9B1E00E943905AE
:1004B000C61AD70AE80AF90A533008F462C0252F91
:1004C0002350330BC90149E9489F9001499F300DE2
:1004D0001124C901029665E070E00E94FD04EB0161
:1004E000A501940161EB7AE382E090E00E94ED04C3
:1004F0004B015C012CE6821A2AEF920A2AE0A20A3A
:10050000B108ADE6B1E0A70196010E944805860E4C
:10051000971EA81EB91ED701C601B695A795979537
:100520008795B695A79597958795880E991EAA1ECB
:10053000BB1EC701B60124E630E040E050E00E9457
:100540001105821A930AA40AB50AC10FD11D6E01C2
:1005500031E0C31AD1080D2C000CEE08FF08C501CC
:10056000B4016C0D7D1D8E1D9F1DDF91CF911F91DC
:10057000FF90EF90DF90CF90BF90AF909F908F90C3
:10058000089539E9539FC00111248D599A4F65E0B0
:1005900070E00E94FD04EB01A3CF8F929F92AF9277
:1005A000BF92CF92DF92EF92FF92CF93DF930E94A0
:1005B0001902C82FD92F8E8190E04B816C81805316
:1005C000984F0E942C02C62ED72EE82EF92E41E01D
:1005D00061E080ED97E00E942C02C61AD70AE80A73
:1005E000F90A2A8130E0A0E1BEE00E9439054B0102
:1005F0005C01A701960160E871E581E090E00E944E
:10060000ED04860E971EA81EB91E8881880E911CC7
:10061000A11CB11C298130E0ACE3B0E00E94390597
:10062000860E971EA81EB91ECE010E945106C50156
:10063000B401DF91CF91FF90EF90DF90CF90BF900A
:10064000AF909F908F9008954F925F926F927F929C
:100650008F929F92AF92BF92CF92DF92EF92FF92D2
:100660000F93CF93DF93CDB7DEB72E970FB6F894E5
:10067000DEBF0FBECDBFC62ED72EE82EF92E86E0E8
:1006800090E00E94B8058D879E87C701B601645926
:100690007540854F9F4F21EB3AE342E050E00E94C6
:1006A000110529833A834B835C836B017C012CEA1F
:1006B0003EE840E050E00E94110549015A018C0CCF
:1006C0009D1CAE1CBF1CC701B60124EB35E040E009
:1006D00050E00E941105821A930AA40AB50AC701C4
:1006E000B60120EB3AE342E050E00E941105821A85
:1006F000930AA40AB50AC501B4012DE631E040E031
:1007000050E00E94110529013A01A0E9B1E02981D8
:100710003A814B815C810E9448059B01AC01240D0C
:10072000351D461D571D29873A874B875C87C501B4
:10073000B40124E93EE840E050E00E941105C20EF9
:10074000D31EE41EF51EC501B40124EB35E040E0E4
:1007500050E00E941105C21AD30AE40AF50AADE678
:10076000B1E0A30192010E944805C61AD70AE80A1F
:10077000F90A46015701880C991CAA1CBB1C880C5D
:10078000991CAA1CBB1C8C0C9D1CAE1CBF1C32E00F
:10079000830E911CA11CB11CC501B40129E930E0F4
:1007A00040E050E00E94110529013A014FEFC41AC0
:1007B000D40AE40AF40AA9E9B0E0A30192010E9474
:1007C00048056E5F7F4F8F4F9F4F2DEC3CEC4CECFC
:1007D0005CEC0E94530500E20E94800529833A8365
:1007E0004B835C836D837E838F83988789819A8115
:1007F000AB81BC81B695A79597958795B695A7953A
:1008000097958795C81AD90AEA0AFB0A5AEF8516FE
:1008100055E09506A104B10490F583E0480E511C03
:10082000611C711C81E090E0F3E04F1651046104FB
:10083000710410F080E090E029853A85820F931FC3
:10084000ED85FE859183808353824282D582C48266
:10085000CF012E960FB6F894DEBF0FBECDBFDF914D
:10086000CF910F91FF90EF90DF90CF90BF90AF901E
:100870009F908F907F906F905F904F900895E9E0E8
:100880004E1A510861087108CDCFCF92DF92EF92D6
:10089000FF920F931F93CF93DF9300D000D000D02F
:1008A000CDB7DEB7C62ED72EE82EF92E84E190E024
:1008B0000E94B805082F192F41E061E080ED97E014
:1008C0000E942C029B01AC0160E871E581E090E0A0
:1008D0000E94ED046C0D7D1D8E1D9F1D20E831E5ED
:1008E00041E050E00E94110569837A838B839C83E9
:1008F000CA01B9010E9424038D839E8369817A8194
:100900008B819C8120E13EE040E050E00E94110597
:10091000F22E2CE330E040E050E00E9411051F92DF
:100920006F931F922F931F92FF92ED81FE81818121
:100930008F9380818F9383818F9382818F93858121
:100940008F9384818F9380E391E09F938F931F9384
:100950000F930E9453078D819E810E9451060FB60E
:10096000F894DEBF0FBECDBF802F912F0F900F9058
:100970000F900F900F900F90DF91CF911F910F91DB
:10098000FF90EF90DF90CF90089582E291E09093F6
:100990005901809358010E9465000EE411E00E9405
:1009A000CD020E944504D82FC92F9F938F931F9388
:1009B0000F930E943D072FEF85EE9AEA2150804069
:1009C0009040E1F700C000008D2F9C2F0E9451063F
:1009D0000F900F900F900F90E2CFDB018F939F93BA
:1009E0000E944805BF91AF91A29F800D911DA39FCA
:1009F000900DB29F900D1124089597FB072E16F4C9
:100A0000009407D077FD09D00E949B0507FC05D014
:100A10003EF4909581959F4F0895709561957F4F15
:100A20000895A1E21A2EAA1BBB1BFD010DC0AA1F2F
:100A3000BB1FEE1FFF1FA217B307E407F50720F047
:100A4000A21BB30BE40BF50B661F771F881F991FC2
:100A50001A9469F760957095809590959B01AC010B
:100A6000BD01CF010895EE0FFF1F0590F491E02D19
:100A70000994A29FB001B39FC001A39F700D811D77
:100A80001124911DB29F700D811D1124911D089597
:100A90000E943905A59F900DB49F900DA49F800DD5
:100AA000911D11240895E894DF93CF93FC01DB019D
:100AB0000E9439057F936F93E9019A01AC01BF93BE
:100AC000AF933F932F93DF010E94390526F46C1BEF
:100AD0007D0B820B930B9E01EB01FC010E94AF0585
:100AE000AF91BF912F913F910E94AF05BE01CF0101
:100AF000F9012F913F91CF91DF91089597FD1094C7
:100B0000002E083098F00850232F342F452F562FF1
:100B1000672F782F892F912DF4CF1594979587956E
:100B20007795679557954795379527950A95AAF72D
:100B30001124002D0895AA1BBB1B51E107C0AA1F59
:100B4000BB1FA617B70710F0A61BB70B881F991F6E
:100B50005A95A9F780959095BC01CD0108950E9402
:100B60003905460F571FC81FD91F08F4319608953D
:100B70000F931F93CF93DF939C01029710F422E011
:100B800030E0E0915201F091530180E090E0A0E06C
:100B9000B0E0309791F4009709F448C0821B930BA2
:100BA00084309105D0F58A819B816115710581F1B1
:100BB000FB0193838283FE0111C040815181028138
:100BC000138142175307D8F04217530799F410972F
:100BD00061F012960C93129713961C933296CF01E4
:100BE000DF91CF911F910F910895009352011093BF
:100BF0005301F4CF009751F04817590738F0AC0172
:100C0000DB01CA01BD01DF01F801C3CFEF01F9CF5C
:100C10009093530180935201CECFFE01E80FF91F4C
:100C200021933193029799838883D9CF809154017E
:100C300090915501892B41F480910201909103011B
:100C4000909355018093540180910001909101018E
:100C5000009741F48DB79EB7409104015091050172
:100C6000841B950B40915401509155014817590729
:100C700008F0B5CF841B950B8217930708F4AFCF0C
:100C8000B9016E5F7F4F8617970708F4A8CF640FEE
:100C9000751F7093550160935401FA0121933193AC
:100CA0009ECFCF93DF939C010097D9F0FC01329740
:100CB00013821282C0915201D0915301209709F002
:100CC00058C080819181280F391F809154019091E3
:100CD00055018217930709F06DC0F0935501E09319
:100CE0005401DF91CF910895AE17BF0708F048C0B7
:100CF000CD0112960D90BC91A02D1097A9F7DC01A3
:100D00001396FC93EE9312974D915D919D01240FE4
:100D1000351FE217F30781F4208131812E5F3F4FA9
:100D2000240F351FDC0111963C932E9322813381D1
:100D300013963C932E931297E0E0F0E08A819B811A
:100D40000097E9F5DE018D919D918A0F9B1F2091FF
:100D50005401309155012817390719F6309791F54C
:100D60001092530110925201D0935501C093540137
:100D7000B8CFDE0180E090E0CE17DF0708F4B8CFEF
:100D8000B383A28340815181240F351FA217B3077B
:100D900071F44E5F5F4F2D913C911197240F351FD9
:100DA0003183208312962D913C91338322830097C7
:100DB00009F0A5CFF0935301E093520192CFFE01C9
:100DC000EC01BCCF13821282CFCFA0E0B0E0EBEEFB
:100DD000F6E00C943A0AEC016B014A017901F90141
:100DE000838100E010E080FF14C00815190589F028
:100DF0005E01AC0CBD1C07C0C7010E9467098F3F94
:100E0000980739F08993CA15DB05B1F70F5F1F4FBB
:100E1000ECCFC801CDB7DEB7ECE00C94560AA0E0E9
:100E2000B0E0E5E1F7E00C943A0A4C017B016A017D
:100E30008901D90113968C91C0E0D0E081FF17C0E1
:100E4000CC15DD05A1F05401AE0CBF1C0BC0D801C0
:100E50001896ED91FC91B801D4018D914D01099541
:100E6000892B29F48A149B0491F72196E9CFCE01AE
:100E7000CDB7DEB7ECE00C94560AA0E0B0E0E3E4B6
:100E8000F7E00C94440AAE014B5F5F4FFA016191A9
:100E90007191AF0180915801909159010E9476079C
:100EA000E2E00C94600AAEE0B0E0E9E5F7E00C9413
:100EB000420A0D891E8986E08C831A8309838FEF8D
:100EC0009FE79E838D83AE01475E5F4F6F89788D6C
:100ED000CE0101960E9476072F813885020F131FDD
:100EE000F80110822E96E4E00C945E0AABE0B0E0CC
:100EF000ECE7F7E00C94370A6C017B018A01FC01F6
:100F000017821682838181FFC9C19AE0592EF601AA
:100F10002381F70123FD859123FF81917F018115B5
:100F200009F459C1853239F423FD959123FF91913C
:100F30007F01953229F4B60190E00E94A609E7CF1F
:100F4000912C612C712CF0E27F1640F59B32D9F088
:100F500058F49032D1F09332F1F09E3299F576FC4C
:100F60003AC1689476F806C09D3291F09033C1F48E
:100F7000689470F8F70123FD959123FF91917F010B
:100F80009111E1CF26C0689471F8689472F8F2CF9D
:100F9000689473F8EFCF689474F8ECCF77FC19C0BD
:100FA00080ED890F8A30C8F676FE05C0959C800DCD
:100FB0001124982EDFCF659C800D1124682E689433
:100FC00075F8D8CF9C3619F4689477F8D3CF983653
:100FD00089F2892F8F7D8554833008F488C0933639
:100FE00009F4A4C0933709F4A7C0933509F4B3C03A
:100FF000943619F0993609F0DDC0F80177FED3C0B8
:1010000061917191819191918F01272D2F76822E7F
:1010100097FF09C090958095709561957F4F8F4F90
:101020009F4F689487F82AE030E0AE014F5F5F4F32
:101030005A010E94D6098A19A82EBA2C782C86FE4D
:101040000CC0E89470F8A91440F484FE05C082FC3A
:1010500003C0F82DFE7E7F2EB92C74FEF8C0FE0171
:10106000EA0DF11D8081803309F0EAC0272D297E29
:10107000722E73FC0EC070FEF9C09A2CB61418F4D0
:10108000960C9B18B62C862D8B196B1408F480E0F7
:10109000B80EB61408F0ECC06B1874FEEBC0B601C5
:1010A00080E390E00E94A60972FE09C088E590E006
:1010B00071FC02C088E790E0B6010E94A609A9145D
:1010C00008F4E5C0AA94B12C4FEFA41AB40ACE01DB
:1010D00001964C01A80EB91EF50182915F01B6017F
:1010E00090E00E94A6098A149B04B1F715C00C5F1A
:1010F0001F4F8FE3898388248394912CAE014F5F27
:101100005F4F5A01E89477F873FC03C0861491048A
:1011100098F181149104B9F5611409F4F8CEB6017F
:1011200080E290E00E94A6096A94F6CFF8018081DF
:1011300089830E5F1F4FDFCFF801A190B1908F011F
:10114000692D70E076FC02C06FEF7FEFC5010E9451
:101150005C094C01D7CFF801A190B1908F01692DA6
:1011600070E076FC02C06FEF7FEFC5010E9451096D
:101170004C01689477F8C8CFB60180E290E00E94F5
:10118000A6096A94C3CFF50177FC859177FE81911A
:101190005F01B60190E00E94A60961106A94F1E037
:1011A0008F1A9108B6CF61917191072E000C880BB0
:1011B000990B2ACF872CE89484F82AE030E0953701
:1011C00039F1572D597F852E9037A9F058F498356D
:1011D000A9F09F36D9F0F601868197812B96EFE032
:1011E0000C94530A9837B9F784FE02C0689482F8C9
:1011F00020E130E00DC0689484F8F6CF74FE03C09F
:10120000852F8660882E20E132E002C028E030E0A1
:10121000F80187FE10C061917191819191918F01C8
:10122000FE0131965F01AF010E94D6098A19A82EEE
:10123000E89487F802CF6191719180E090E0EFCF60
:1012400072FC02C0B39415CFB394B39412CF872D20
:101250008678811509F40DCFF5CFB60180E290E0D4
:101260000E94A60983948614C0F30DCF8B2CFBCF6C
:10127000612C13CF872D8678811509F420CF80E269
:1012800071FC8BE277FC8DE2B60190E016CFB601DF
:1012900080E390E00E94A6099A9411CF8FEF9FEF10
:1012A0009DCFFC010590615070400110D8F78095EA
:1012B00090958E0F9F1F0895FC0161507040019022
:1012C0000110D8F7809590958E0F9F1F0895CF93AA
:1012D000DF93EC018B8180FF1BC086FF0CC08F7BEE
:1012E0008B838E819F8101969F838E838A8190E07C
:1012F000DF91CF91089582FF19C0E881F981908133
:10130000292F092E000C330B911105C080628B83AD
:101310008FEF9FEFEDCF3196F983E8838E819F8128
:1013200001969F838E83C9019927E2CFEA85FB85C9
:10133000CE0109959C0197FFF1CF8B812F3F3F4F45
:1013400019F490E1892BE3CF90E2FCCF0F931F9328
:10135000CF93DF93182F092FEB018B8181FD09C0FB
:101360001FEF0FEF812F902FDF91CF911F910F91E2
:10137000089582FF14C02E813F818C819D812817A2
:1013800039073CF4E881F981CF010196998388837C
:1013900010838E819F8101969F838E83E3CFE885A2
:1013A000F985812F0995892BA1F3DACFFA01AA27B4
:1013B000283051F1203181F1E8946F936E7F6E5F98
:1013C0007F4F8F4F9F4FAF4FB1E03ED0B4E03CD046
:1013D000670F781F891F9A1FA11D680F791F8A1F29
:1013E000911DA11D6A0F711D811D911DA11D20D090
:1013F00009F468943F912AE0269F11243019305D4A
:101400003193DEF6CF010895462F4770405D41933A
:10141000B3E00FD0C9F7F6CF462F4F70405D4A3387
:1014200018F0495D31FD4052419302D0A9F7EACF4F
:10143000B4E0A6959795879577956795BA95C9F77E
:1014400000976105710508959B01AC010A2E069471
:101450005795479537952795BA95C9F7620F731F2A
:10146000841F951FA01D08952F923F924F925F9267
:101470006F927F928F929F92AF92BF92CF92DF92A4
:10148000EF92FF920F931F93CF93DF93CDB7DEB709
:10149000CA1BDB0B0FB6F894DEBF0FBECDBF09949D
:1014A0002A88398848885F846E847D848C849B84F4
:1014B000AA84B984C884DF80EE80FD800C811B8102
:1014C000AA81B981CE0FD11D0FB6F894DEBF0FBE31
:1014D000CDBFED010895F894FFCF19015B0119010B
:1014E0005B012E015B012E015B0143015B014B019E
:1014F0005B014E018101D3018101D3019401D3012C
:0E1500009401D301A701D301BA01D301BD01AB
:10150E0000005C012000000000010000000000004F
:10151E005D0000000000000200000000530000000B
:10152E000000000000020000000053000000000058
:10153E00253032642F253032642F253032642D252C
:10154E003032643A253032643A25303264002573E5
:02155E0000008B
:00000001FF
